{
  "contractName": "DatosDeportivos",
  "abi": [
    {
      "constant": true,
      "inputs": [
        {
          "name": "",
          "type": "uint256"
        }
      ],
      "name": "posts",
      "outputs": [
        {
          "name": "id",
          "type": "uint256"
        },
        {
          "name": "equipo1",
          "type": "string"
        },
        {
          "name": "equipo2",
          "type": "string"
        },
        {
          "name": "tip",
          "type": "uint256"
        },
        {
          "name": "author",
          "type": "address"
        }
      ],
      "payable": false,
      "stateMutability": "view",
      "type": "function",
      "signature": "0x0b1e7f83"
    },
    {
      "constant": true,
      "inputs": [],
      "name": "postCount",
      "outputs": [
        {
          "name": "",
          "type": "uint256"
        }
      ],
      "payable": false,
      "stateMutability": "view",
      "type": "function",
      "signature": "0x17906c2e"
    },
    {
      "constant": true,
      "inputs": [],
      "name": "liga",
      "outputs": [
        {
          "name": "",
          "type": "string"
        }
      ],
      "payable": false,
      "stateMutability": "view",
      "type": "function",
      "signature": "0x9451cbca"
    },
    {
      "inputs": [],
      "payable": false,
      "stateMutability": "nonpayable",
      "type": "constructor",
      "signature": "constructor"
    },
    {
      "anonymous": false,
      "inputs": [
        {
          "indexed": false,
          "name": "id",
          "type": "uint256"
        },
        {
          "indexed": false,
          "name": "equipo1",
          "type": "string"
        },
        {
          "indexed": false,
          "name": "equipo2",
          "type": "string"
        },
        {
          "indexed": false,
          "name": "tip",
          "type": "uint256"
        },
        {
          "indexed": false,
          "name": "author",
          "type": "address"
        }
      ],
      "name": "PostCreated",
      "type": "event",
      "signature": "0x0e2769bd597cd7048e25b64a846e1254d4cb84b13c4aba4ad4a891baf7a399c6"
    },
    {
      "anonymous": false,
      "inputs": [
        {
          "indexed": false,
          "name": "id",
          "type": "uint256"
        },
        {
          "indexed": false,
          "name": "equipo1",
          "type": "string"
        },
        {
          "indexed": false,
          "name": "equipo2",
          "type": "string"
        },
        {
          "indexed": false,
          "name": "tip",
          "type": "uint256"
        },
        {
          "indexed": false,
          "name": "author",
          "type": "address"
        }
      ],
      "name": "PostTipped",
      "type": "event",
      "signature": "0x8cdd31fc6bd9c789638fdbd3ed5c788b27fa5d287f300e92f3c436ba03527db3"
    },
    {
      "constant": false,
      "inputs": [
        {
          "name": "_e1",
          "type": "string"
        },
        {
          "name": "_e2",
          "type": "string"
        }
      ],
      "name": "createPost",
      "outputs": [],
      "payable": false,
      "stateMutability": "nonpayable",
      "type": "function",
      "signature": "0x392338f5"
    },
    {
      "constant": false,
      "inputs": [
        {
          "name": "_id",
          "type": "uint256"
        }
      ],
      "name": "tipPost",
      "outputs": [],
      "payable": true,
      "stateMutability": "payable",
      "type": "function",
      "signature": "0x74d3c1f8"
    }
  ],
  "bytecode": "0x6080604052600060015534801561001557600080fd5b506040805190810160405280601081526020017f4368616d70696f6e73204c65616775650000000000000000000000000000000081525060009080519060200190610061929190610067565b5061010c565b828054600181600116156101000203166002900490600052602060002090601f016020900481019282601f106100a857805160ff19168380011785556100d6565b828001600101855582156100d6579182015b828111156100d55782518255916020019190600101906100ba565b5b5090506100e391906100e7565b5090565b61010991905b808211156101055760008160009055506001016100ed565b5090565b90565b610e208061011b6000396000f3fe60806040526004361061006d576000357c0100000000000000000000000000000000000000000000000000000000900463ffffffff1680630b1e7f831461007257806317906c2e146101d3578063392338f5146101fe57806374d3c1f81461035d5780639451cbca1461038b575b600080fd5b34801561007e57600080fd5b506100ab6004803603602081101561009557600080fd5b810190808035906020019092919050505061041b565b6040518086815260200180602001806020018581526020018473ffffffffffffffffffffffffffffffffffffffff1673ffffffffffffffffffffffffffffffffffffffff168152602001838103835287818151815260200191508051906020019080838360005b8381101561012d578082015181840152602081019050610112565b50505050905090810190601f16801561015a5780820380516001836020036101000a031916815260200191505b50838103825286818151815260200191508051906020019080838360005b83811015610193578082015181840152602081019050610178565b50505050905090810190601f1680156101c05780820380516001836020036101000a031916815260200191505b5097505050505050505060405180910390f35b3480156101df57600080fd5b506101e86105a1565b6040518082815260200191505060405180910390f35b34801561020a57600080fd5b5061035b6004803603604081101561022157600080fd5b810190808035906020019064010000000081111561023e57600080fd5b82018360208201111561025057600080fd5b8035906020019184600183028401116401000000008311171561027257600080fd5b91908080601f016020809104026020016040519081016040528093929190818152602001838380828437600081840152601f19601f820116905080830192505050505050509192919290803590602001906401000000008111156102d557600080fd5b8201836020820111156102e757600080fd5b8035906020019184600183028401116401000000008311171561030957600080fd5b91908080601f016020809104026020016040519081016040528093929190818152602001838380828437600081840152601f19601f8201169050808301925050505050505091929192905050506105a7565b005b6103896004803603602081101561037357600080fd5b810190808035906020019092919050505061080b565b005b34801561039757600080fd5b506103a0610c6b565b6040518080602001828103825283818151815260200191508051906020019080838360005b838110156103e05780820151818401526020810190506103c5565b50505050905090810190601f16801561040d5780820380516001836020036101000a031916815260200191505b509250505060405180910390f35b6002602052806000526040600020600091509050806000015490806001018054600181600116156101000203166002900480601f0160208091040260200160405190810160405280929190818152602001828054600181600116156101000203166002900480156104cd5780601f106104a2576101008083540402835291602001916104cd565b820191906000526020600020905b8154815290600101906020018083116104b057829003601f168201915b505050505090806002018054600181600116156101000203166002900480601f01602080910402602001604051908101604052809291908181526020018280546001816001161561010002031660029004801561056b5780601f106105405761010080835404028352916020019161056b565b820191906000526020600020905b81548152906001019060200180831161054e57829003601f168201915b5050505050908060030154908060040160009054906101000a900473ffffffffffffffffffffffffffffffffffffffff16905085565b60015481565b600082511115156105b757600080fd5b60016000815480929190600101919050555060a0604051908101604052806001548152602001838152602001828152602001600081526020013373ffffffffffffffffffffffffffffffffffffffff16815250600260006001548152602001908152602001600020600082015181600001556020820151816001019080519060200190610645929190610d09565b506040820151816002019080519060200190610662929190610d09565b506060820151816003015560808201518160040160006101000a81548173ffffffffffffffffffffffffffffffffffffffff021916908373ffffffffffffffffffffffffffffffffffffffff1602179055509050507f0e2769bd597cd7048e25b64a846e1254d4cb84b13c4aba4ad4a891baf7a399c660015483836000336040518086815260200180602001806020018581526020018473ffffffffffffffffffffffffffffffffffffffff1673ffffffffffffffffffffffffffffffffffffffff168152602001838103835287818151815260200191508051906020019080838360005b83811015610762578082015181840152602081019050610747565b50505050905090810190601f16801561078f5780820380516001836020036101000a031916815260200191505b50838103825286818151815260200191508051906020019080838360005b838110156107c85780820151818401526020810190506107ad565b50505050905090810190601f1680156107f55780820380516001836020036101000a031916815260200191505b5097505050505050505060405180910390a15050565b60008111801561081d57506001548111155b151561082857600080fd5b610830610d89565b6002600083815260200190815260200160002060a0604051908101604052908160008201548152602001600182018054600181600116156101000203166002900480601f0160208091040260200160405190810160405280929190818152602001828054600181600116156101000203166002900480156108f25780601f106108c7576101008083540402835291602001916108f2565b820191906000526020600020905b8154815290600101906020018083116108d557829003601f168201915b50505050508152602001600282018054600181600116156101000203166002900480601f0160208091040260200160405190810160405280929190818152602001828054600181600116156101000203166002900480156109945780601f1061096957610100808354040283529160200191610994565b820191906000526020600020905b81548152906001019060200180831161097757829003601f168201915b50505050508152602001600382015481526020016004820160009054906101000a900473ffffffffffffffffffffffffffffffffffffffff1673ffffffffffffffffffffffffffffffffffffffff1673ffffffffffffffffffffffffffffffffffffffff168152505090506000816080015190508073ffffffffffffffffffffffffffffffffffffffff166108fc349081150290604051600060405180830381858888f19350505050158015610a4e573d6000803e3d6000fd5b50348260600151018260600181815250508160026000858152602001908152602001600020600082015181600001556020820151816001019080519060200190610a99929190610d09565b506040820151816002019080519060200190610ab6929190610d09565b506060820151816003015560808201518160040160006101000a81548173ffffffffffffffffffffffffffffffffffffffff021916908373ffffffffffffffffffffffffffffffffffffffff1602179055509050507f8cdd31fc6bd9c789638fdbd3ed5c788b27fa5d287f300e92f3c436ba03527db3600154836020015184604001518560600151856040518086815260200180602001806020018581526020018473ffffffffffffffffffffffffffffffffffffffff1673ffffffffffffffffffffffffffffffffffffffff168152602001838103835287818151815260200191508051906020019080838360005b83811015610bc1578082015181840152602081019050610ba6565b50505050905090810190601f168015610bee5780820380516001836020036101000a031916815260200191505b50838103825286818151815260200191508051906020019080838360005b83811015610c27578082015181840152602081019050610c0c565b50505050905090810190601f168015610c545780820380516001836020036101000a031916815260200191505b5097505050505050505060405180910390a1505050565b60008054600181600116156101000203166002900480601f016020809104026020016040519081016040528092919081815260200182805460018160011615610100020316600290048015610d015780601f10610cd657610100808354040283529160200191610d01565b820191906000526020600020905b815481529060010190602001808311610ce457829003601f168201915b505050505081565b828054600181600116156101000203166002900490600052602060002090601f016020900481019282601f10610d4a57805160ff1916838001178555610d78565b82800160010185558215610d78579182015b82811115610d77578251825591602001919060010190610d5c565b5b509050610d859190610dcf565b5090565b60a06040519081016040528060008152602001606081526020016060815260200160008152602001600073ffffffffffffffffffffffffffffffffffffffff1681525090565b610df191905b80821115610ded576000816000905550600101610dd5565b5090565b9056fea165627a7a723058205e7561b4e41b544b4755ea7eacaed1988785f10b91439c3a0bef9748e12485e10029",
  "source": "pragma solidity ^0.5.0;\r\n\r\ncontract DatosDeportivos {\r\n    string public liga;\r\n    \r\n    uint public postCount = 0;\r\n\r\n    mapping(uint => Post) public posts;\r\n\r\n    struct Post {\r\n        uint id;\r\n        string equipo1;\r\n        string equipo2;\r\n        uint tip;\r\n        address payable author;\r\n    }\r\n\r\n    event PostCreated(\r\n        uint id,\r\n        string equipo1,\r\n        string equipo2,\r\n        uint tip,\r\n        address payable author\r\n    );\r\n\r\n    event PostTipped(\r\n        uint id,\r\n        string equipo1,\r\n        string equipo2,\r\n        uint tip,\r\n        address payable author\r\n    );\r\n\r\n    constructor() public {\r\n        liga = \"Champions League\";\r\n    }\r\n\r\n    function createPost(string memory _e1,string memory _e2) public {\r\n        require(bytes(_e1).length > 0);\r\n        postCount ++;\r\n        posts[postCount] = Post(postCount, _e1,_e2,0, msg.sender);\r\n        // Trigger event\r\n        emit PostCreated(postCount, _e1,_e2,0, msg.sender);\r\n    }\r\n\r\n    function tipPost(uint _id) public payable {\r\n        // Make sure the id is valid\r\n        require(_id > 0 && _id <= postCount);\r\n        // Fetch the post\r\n        Post memory _post = posts[_id];\r\n        // Fetch the author\r\n        address payable _author = _post.author;\r\n        // Pay the author by sending them Ether\r\n        address(_author).transfer(msg.value);\r\n        // Incremet the tip amount\r\n        _post.tip = _post.tip + msg.value;\r\n        // Update the post\r\n        posts[_id] = _post;\r\n        // Trigger an event\r\n        emit PostTipped(postCount, _post.equipo1,_post.equipo2, _post.tip, _author);\r\n    }\r\n}\r\n",
  "sourcePath": "C:/Vanguardia-Q4-2020/src/contracts/DatosDeportivos.sol",
  "compiler": {
    "name": "solc",
    "version": "0.5.0+commit.1d4f565a.Emscripten.clang"
  },
  "schemaVersion": "3.0.2",
  "updatedAt": "2020-12-20T03:06:34.364Z",
  "devdoc": {
    "methods": {}
  },
  "userdoc": {
    "methods": {}
  }
}